:020000040800F2
:10000000E8090020390200080B1A000875150008DD
:10001000091A000893040008891E00080000000067
:100020000000000000000000000000000F1A00089F
:1000300095040008000000000D1A0008111A0008BD
:10004000530200085302000853020008530200083C
:10005000530200085302000853020008530200082C
:10006000530200085302000853020008530200081C
:10007000530200085302000853020008530200080C
:100080005302000853020008530200080000000059
:100090000000000000000000000000005302000803
:1000A00053020008530200085302000853020008DC
:1000B00053020008530200085302000853020008CC
:1000C00053020008530200085302000853020008BC
:1000D0005302000853020008530200080000000009
:1000E00053020008530200085302000800000000F9
:1000F00000000000000000000000000053020008A3
:1001000000000000530200085302000853020008D8
:1001100000000000000000000000000000000000DF
:10012000530200085302000853020008530200085B
:100130005302000800000000000000000000000062
:100140000000000000000000000000005302000852
:10015000530200085302000853020008530200082B
:1001600053020008530200080000000000000000D5
:10017000000000000000000000000000000000007F
:100180000000000053020008000000000000000012
:10019000530200085302000800F002F800F03CF897
:1001A0000AA090E8000C82448344AAF10107DA45D2
:1001B00001D100F031F8AFF2090EBAE80F0013F0E8
:1001C000010F18BFFB1A43F001031847CC1F0000B2
:1001D000EC1F0000103A24BF78C878C1FAD8520743
:1001E00024BF30C830C144BF04680C6070470000B1
:1001F0000023002400250026103A28BF78C1FBD830
:10020000520728BF30C148BF0B6070471FB501F0CF
:10021000B1FF1FBD10B510BD00F001F91146FFF789
:10022000F5FF01F0A3FE00F01FF903B4FFF7F2FFA2
:1002300003BC00F027F9000009488047094800473F
:10024000FEE7FEE7FEE7FEE7FEE7FEE7FEE7FEE786
:10025000FEE7FEE704480549054A064B70470000E3
:10026000091B000899010008E8030020E8090020A4
:10027000E8050020E805002053EA020C00F0698040
:100280002DE9F04B4FF00006002B1FBFB3FA83F5AA
:1002900003FA05F424FA05F65E4012BF1643B2FADB
:1002A00082F502FA05F4C5F120051EBF22FA05FC0D
:1002B00044EA0C04203556EA044C4FEA144418BFB3
:1002C000641C4FF000084FF00009904271EB030CE2
:1002D00039D3002919BFB1FA81F701FA07F6B0FA4C
:1002E00080F700FA07F6C7F120071EBF20FA07FCC7
:1002F00046EA0C062037B6FBF4FCA7EB0507103FD7
:1003000007F01F0BCBF120060CFA0BFB2CFA06F6BC
:1003100044BFB3460026202FA4BF5E464FF0000B1B
:100320005BEA060C08BF4FF0010B19EB0B09ABFBA6
:10033000027C48EB0608C01B06FB02CC0BFB03CC7F
:1003400071EB0C01C1E70B46024641464846BDE849
:10035000F08B13B54FF000004FF00001AFF30080B9
:10036000BDE81C40704710B5203AC0F00B80B1E8E2
:100370001850203AA0E81850B1E81850A0E81850DA
:10038000BFF4F5AF5FEA027C24BFB1E81850A0E8E3
:10039000185044BF18C918C0BDE810405FEA827CFD
:1003A00024BF51F8043B40F8043B08BF7047D20714
:1003B00028BF31F8023B48BF11F8012B28BF20F8B5
:1003C000023B48BF00F8012B70474FF0000200B518
:1003D000134694469646203922BFA0E80C50A0E868
:1003E0000C50B1F12001BFF4F7AF090728BFA0E816
:1003F0000C5048BF0CC05DF804EB890028BF40F8E2
:10040000042B08BF704748BF20F8022B11F0804F23
:1004100018BF00F8012B704770477047704775464A
:1004200000F02CF8AE4605006946534620F0070060
:10043000854618B020B5FFF70DFFBDE820404FF00E
:1004400000064FF000074FF000084FF0000B21F0BE
:100450000701AC46ACE8C009ACE8C009ACE8C0098B
:10046000ACE8C0098D46704710B50446AFF3008074
:100470002046BDE81040FFF7D8BE00000048704796
:100480008803002001491820ABBEFEE726000200C9
:100490007047FEE7704700002DE9F84FDFF8B8A17C
:1004A0000022012403254FF00F090AF1040BAAF1E1
:1004B000040E00BF0B6804FA02F63340B34273D156
:1004C0000F7907F00307012F01D0022F16D187689B
:1004D0004FEA420805FA08FC27EA0C07D1F80CC0DD
:1004E0000CFA08FC4CEA070CC0F808C04768B74390
:1004F0000E79C6F3001696403E4346600E79F643E9
:10050000B6070DD0C768560005FA06FC27EA0C07A7
:10051000D1F808C00CFA06FC4CEA070CC0F80CC075
:100520000E7906F00306022E10D1D60800EB8608DD
:10053000D8F8206057074FEAD76C09FA0CF7BE438A
:100540000F6907FA0CF73743C8F8207006684FEABE
:10055000420C05FA0CF7BE430F7907F0030707FAC0
:100560000CF7374307604E6816F4403F6DD03B4EA2
:10057000376847F480473760366822F0030706F48F
:1005800080460096364E07EB060CDCF808689707A5
:100590003F0F09FA07F826EA0806DFF8C880404549
:1005A00003D14FF000081EE04FE0DFF8BC8040456B
:1005B00002D14FF0010816E0DFF8B080404502D1CB
:1005C0004FF002080FE0DFF8A880404502D14FF05D
:1005D000030808E0DFF89C80404502D14FF0040892
:1005E00001E04FF0070808FA07F848EA0608CCF8D7
:1005F0000888DAF800605746D1F804C09E435FEAE5
:10060000CC2C00D51E433E60DBF800605F46D1F87D
:1006100004C09E435FEA8C2C00D51E433E60DEF88A
:1006200000607746D1F804C09E435FEA8C3C00D559
:100630001E433E60084F083F3E68D1F804C09E4309
:100640005FEACC3C00D51E433E60521C102AFFF4EA
:1006500031AFBDE8F88F0000083C0140443802404B
:100660000030014000000240000402400008024047
:10067000000C0240001002400AB181617047090479
:10068000FBE700000148806870470000040000207C
:10069000024881680278114481607047040000209C
:1006A0000B4810B5016841F400710160016841F424
:1006B00080610160016841F480710160032000F0F5
:1006C00061F80F2000F006F800F024F8002010BDBB
:1006D000003C024070B50D4D04464FF47A71287805
:1006E000B1FBF0F00A490968B1FBF0F000F0FEFA46
:1006F00048B9102C07D200222146501E00F022F8E3
:1007000000206C6070BD012070BD0000040000205E
:10071000100000200A4808B5016841F480410160DA
:10072000006800F4804000900548001F016841F017
:1007300080510160006800F08050009008BD00000A
:1007400044380240F0B40E4B1B680C46C3F302233E
:10075000C3F10705042D00D90425191D072901D26D
:10076000002300E0DB1E012606FA05F1491E2140A8
:1007700099409E40761E16403143F0BC01F085BB87
:100780000CED00E0064900F0070208684FF6FF0391
:10079000184040EA0220034A1043086070470000F6
:1007A0000CED00E00000FA052DE9F0470E460500CB
:1007B00065D0DFF81481D8F80000F7B200F0070028
:1007C000B04207D288F80070D8F8000000F00700A7
:1007D000B04254D128683D4C810712D5400703D55B
:1007E000206840F4E05020602878000703D5206896
:1007F00040F4604020602068A96820F0F0000843C1
:1008000020602878C0072DD0304968680839012851
:1008100012D0022813D0032811D0096889070029B3
:100820002DDA216821F0030101432160FFF72AFF3F
:10083000814641F2883A0EE009688903EFE70968CA
:100840008901ECE7FFF71EFFA0EB0901514502D932
:100850000320BDE8F0872068696800F00C00B0EB69
:10086000810FEFD1D8F80010404601F00701B142E6
:1008700007D90770006800F00700B04201D00120DE
:10088000E7E72878400705D52068E96820F4E050BC
:10089000084320602878000706D52068296920F4DD
:1008A000604040EAC100206000F038F82168084A42
:1008B000C1F30311515CC84006490860064800684E
:1008C000FFF708FF0020C4E7003C02400838024060
:1008D0007E2100081000002008000020044805497F
:1008E00000680968044AC1F38221515CC84070471E
:1008F00010000020083802408E21000804480549F5
:1009000000680968044AC1F34231515CC84070472D
:1009100010000020083802408E210008154810B54C
:10092000006810F00C02144813D01449042A0FD0A8
:10093000082A0ED10F4C241F2268236802F03F02C0
:100940005B0207D52068C0F38810A0FB010106E018
:10095000084610BD2168C1F38811A1FB00010023E6
:10096000FFF78AFC2168C1F30141491C4900B0FB33
:10097000F1F010BD083802400024F40040787D01F9
:100980002DE9F84F04006ED02078DFF84C93C007B3
:10099000A9F104054AD009F104000168C1F38101FD
:1009A000012908D00068C0F3810002280AD1D9F8D3
:1009B0000000400206D52868800337D5606800280B
:1009C000E1D033E06068B0F5803F10D0B0F5A02FE3
:1009D000286810D020F480302860286820F4802017
:1009E00028606068A8B1FFF74DFE06460DE0286854
:1009F00040F48030F4E740F480202860F7E700BF3F
:100A0000FFF740FE801B642873D828688003F7D561
:100A10000CE0FFF737FE064605E000BFFFF732FEA9
:100A2000801B6428F0D828688003F7D42078DFF88A
:100A3000AC8280074FF0000A3ED5A748001D016830
:100A400011F00C0F08D00068C0F3810002280BD110
:100A5000D9F80000400207D42868800716D5E0685E
:100A6000012800D112E033E1E068B8B10120C8F8F4
:100A70000000FFF707FE064605E000BFFFF702FE95
:100A8000801B0228C0D828688007F7D5286821690C
:100A900020F0F80040EAC10028600DE0C8F800A08E
:100AA000FFF7F0FD064604E0FFF7ECFD801B02288F
:100AB0001FD828688007F7D42078000722D5864FF2
:100AC00087486169703771B101210160FFF7DAFD74
:100AD000064604E0FFF7D6FD801B022809D83868D7
:100AE0008007F7D50EE0C0F800A0FFF7CBFD064663
:100AF00005E082E0FFF7C6FD801B02287DD838683C
:100B00008007F7D42078400768D5DFF8CCB10027FC
:100B10000BF13C0BDBF80000C0000BD4DBF800103D
:100B200041F08051CBF80010DBF80000012700F005
:100B3000805000906B4E3068C00510D4306840F48F
:100B400080703060FFF79EFD009005E0FFF79AFD92
:100B50000099401A022850D83068C005F6D55E4E7C
:100B6000A0686C3601280FD00528306810D020F01E
:100B700001003060306820F004003060A068B8B137
:100B8000FFF780FD00900FE0306840F00100F4E7CF
:100B900040F004003060F7E7FFF774FD0099411A58
:100BA00041F28830814266D830688007F4D50EE083
:100BB000FFF768FD009007E0FFF764FD0099411A18
:100BC00041F28830814256D830688007F4D42FB182
:100BD000DBF8001021F08051CBF80010A069C8B3F9
:100BE0003D49091D0968C1F3810102294AD0022843
:100BF000504607D0C8F8600000E03CE0FFF742FD37
:100C000004463BE04746C8F86000FFF73BFD064658
:100C100005E000BFFFF736FD801B02282BD82868AF
:100C20008001F7D4D4E907010843A16A2E4A490894
:100C300002EB0141626A41EA8211084394F82C10E8
:100C400040EA0161C9F8001001203866FFF71AFD7B
:100C5000044606E03EE000BFFFF714FD001B02283B
:100C600009D828688001F7D534E000BFFFF70AFDF6
:100C7000001B022802D90320BDE8F88F28688001F4
:100C8000F4D427E00128F7D0D9F80000E26900F495
:100C9000800191421CD1226A00F03F01914217D19C
:100CA00047F6C071626A0140B1EB821F10D1A26A9F
:100CB0004FF0FF3300F4403103EB5202B1EB024F2F
:100CC00006D194F82C1000F07060B0EB016F01D0E9
:100CD0000120D1E70020CFE704380240000047425E
:100CE000800E4742007000400000FFFF10B5401E1C
:100CF000B0F1807F01D3012010BD4FF0E02460618E
:100D00000F21601701F0C1F80020A06107202061C9
:100D1000002010BD70B590F83C20012A2CD0012491
:100D200080F83C40022280F83D2003685A689D68A4
:100D300022F070060A6832435A60104B02689A42E9
:100D40000ED0B2F1804F0BD00D4B9A4208D00D4B14
:100D50009A4205D00C4B9A4202D00C4B9A4204D1D5
:100D6000496825F080031943916080F83D400021D7
:100D700080F83C10084670BD022070BD00000140A4
:100D80000004004000080040000C0040004001400A
:100D900010B5040003D094F83D0010B107E0012025
:100DA00010BD002084F83C00204600F01FF802200F
:100DB00084F83D00211D206800F0AEFE012084F87B
:100DC000460084F83E0084F83F0084F8400084F830
:100DD000410084F8420084F8430084F8440084F819
:100DE000450084F83D00002010BD000008B50168F2
:100DF0001748814208D11748016841F0020101609B
:100E0000006800F002000BE01248134A001D9142F6
:100E100008D1016841F480310160006800F480303D
:100E2000009008BD0D4A914207D1016841F400319C
:100E30000160006800F40030F2E7094A9142F0D105
:100E4000016841F480210160006800F48020E7E738
:100E5000000400404038024000400140004401408E
:100E60000048014070B5044690F83C000025012878
:100E700017D0012684F83C60022084F83D002068E9
:100E8000826822F0770222F47F428260086850284C
:100E900038D00DDC20284FD005DC90B3102811D1BC
:100EA0004AE0022070BD302846D040280AD13BE0FD
:100EB00060282FD070280DD0B0F5805F03D0B0F53A
:100EC000005F12D0012584F83D60002084F83C00CA
:100ED000284670BDCB68D1E90121206800F075FE7D
:100EE0002068816841F0770109E0CB68D1E90121F0
:100EF000206800F06AFE2068816841F480418160CA
:100F0000E1E719E0CA684968206800F013FF502142
:100F1000206806E0CA684968206800F01CFF60216C
:100F2000206800F05CFECEE7CA684968206800F0DF
:100F300001FF40212068F4E7226801461046F0E7EF
:100F40002DE9F0410D46040003D094F83D0018B19E
:100F500008E00120BDE8F081002084F83C00204634
:100F600000F040F8022084F83D002068816844F2D7
:100F7000070291438160211D206800F0CDFD2268A9
:100F800090689169166A2B68AF69034340F2033099
:100F9000814341EA0721A868EF6908434FF6FC4105
:100FA0008843E96840EA0720014328692F6A000165
:100FB00040EA0730084369686D6926F0AA0646EAE8
:100FC0000515294393602268906154F8460B01622D
:100FD000012004F81F09E0752076E0762077A075DF
:100FE0000020B7E7F0B587B0044614216846FFF744
:100FF000ECF9464923680024454802250126454A64
:101000008B4219D1424914310B6843F001030B6044
:10101000096801F001010591016841F001010160D9
:101020000068694600F0010005904FF440700090A0
:10103000CDE90154104647E03549374F1031B3F13F
:10104000804F19D0354EB34244D10A6842F00402B1
:101050000A60096801F004010591016841F002018C
:1010600001600068694600F002000590C020009011
:10107000CDE90154384646E00B6843F001030B60AC
:10108000096801F001010591016841F00101016069
:10109000016801F001010591016841F00201016060
:1010A0000068694600F00200059020200090CDE91C
:1010B0000154CDE903461046FFF7EEF908200090F1
:1010C000CDE9015469463846CDE90346FFF7E4F916
:1010D00007B0F0BD124EB342FAD10B6843F00803DB
:1010E0000B60096801F008010591016841F00101F8
:1010F00001600068694600F001000590032000903F
:10110000CDE901541046CDE90345DFE70000014079
:101110003038024000000240000402400008004055
:10112000000C004070B590F83E60044690F83F50C7
:1011300090F8423090F84320022021B1042914D0C5
:10114000012E25D11EE0012E22D1012B20D184F8C1
:101150003E0084F8420001220021206800F028FDB2
:101160002068C16841F002012FE0012D10D1012A51
:101170000ED184F83F0084F843000421206800F079
:1011800017FD1EE0012D03D1012B01D1012A01D051
:10119000012070BD84F83E0084F83F0084F84200CE
:1011A00084F8430001220021206800F001FD0122A3
:1011B0000421206800F0FCFC2068C16841F00201B5
:1011C000C1602068C16841F00401C1602068016805
:1011D00041F001010160002070BD0000F0B587B052
:1011E000044614216846FFF7F0F8314B21680024CB
:1011F00030480225304A0326304F994221D10168F8
:1012000041F001010160016801F0010105910168EF
:1012100041F0020101600068694600F0020005909B
:10122000C0200090CDE901541046CDE90345FFF7F9
:1012300033F90096CDE9015469463846CDE90345B6
:1012400011E01F4B994212D1016841F00101016088
:101250000068694600F0010005900C200090CDE97F
:101260000154104621E0FFF717F907B0F0BD154A09
:10127000914209D1016841F002010160006800F06B
:101280000200059090150BE00F4A9142EDD10168E4
:1012900041F002010160006800F002000590501565
:1012A0000090CDE9015469463846CDE90346DAE7B6
:1012B00000040040303802400000024000040240B8
:1012C00000400140004401400048014070B5044620
:1012D00090F83C0000260D4601280FD0012084F82C
:1012E0003C006AB1042A1DD0082A2FD00C2A3FD016
:1012F0000126002084F83C00304670BD022070BDFD
:10130000206800F075FC2068816941F00801816166
:101310002068816921F004018161206881692A695E
:10132000114311E0206800F08BFC2068816941F4D2
:10133000006181612068816921F480618161206898
:1013400081692A6941EA02218161D2E7206800F0BF
:10135000A3FC2068C16941F00801C1612068C1692E
:1013600021F00401C1612068C1692A69114311E0BB
:10137000206800F0BDFC2068C16941F40061C161D2
:101380002068C16921F48061C1612068C1692A694E
:1013900041EA0221C161ACE710B5040003D094F822
:1013A0003D0010B107E0012010BD002084F83C0092
:1013B000204600F01EF8022084F83D00211D206820
:1013C00000F0AAFB012084F8460084F83E0084F86F
:1013D0003F0084F8400084F8410084F8420084F81B
:1013E000430084F8440084F8450084F83D00002060
:1013F00010BD704710B50446022249B104290ED031
:10140000082913D094F84100012816D0012010BDFE
:1014100094F83E000128F9D184F83E200FE094F8BA
:101420003F000128F2D184F83F2008E094F8400002
:101430000128EBD184F8402001E084F8412001220A
:10144000206800F0B5FB12492068884203D1426C45
:1014500042F400424264206888420ED0B0F1804FCE
:101460000BD00C49884208D00B49884205D00B4963
:10147000884202D00A49884204D1816801F00701FC
:10148000062903D0016841F001010160002010BD70
:10149000000001400004004000080040000C004033
:1014A0000040014070B5040004D094F83D000025D0
:1014B00010B106E0012070BD84F83C50204600F0D9
:1014C00023F8242084F83D002068C16821F40051ED
:1014D000C160204600F052FC2068016921F490416F
:1014E00001612068416921F02A0141612068C168D9
:1014F00041F40051C1602564202084F83D0084F847
:101500003E00002070BD000010B586B004461421D6
:101510006846FEF75AFF14492068884221D11348D3
:101520000021026842F020020260006800F0200002
:1015300005900E481438026842F00102026000680B
:1015400000F0010005904FF4C05000900220CDE95A
:101550000101032003900820049069460448FEF727
:101560009BFF06B010BD000000140140443802404B
:1015700000000240FEE700002DE9F04786B014218C
:101580006846FEF722FF2C480024016841F0040160
:101590000160016801F004010591016841F08001DA
:1015A0000160016801F080010591016841F00101CD
:1015B0000160016801F001010591016841F002013B
:1015C00001600068DFF8748000F002004FF46045AD
:1015D0000590002229464046FFF74EF8DFF860905C
:1015E00048F21046002231464846FFF745F8DFF83A
:1015F00054A04FF23447002239465046FFF73CF8DA
:1016000000950125CDE90154694640460394FEF753
:1016100043FF0096CDE90154694648460394FEF71E
:101620003BFF0097CDE90154694650460394FEF70D
:1016300033FF06B0BDE8F0873038024000080240B2
:10164000000002400004024010B588B01C2168462A
:10165000FEF7BBFE144813490024C0E900144FF6FE
:10166000FF71C0E9024104618461FFF791FB08B199
:1016700072B6FEE70C48FFF78FFE08B172B6FEE7C0
:101680006020CDE9000402940022694606480494D3
:10169000FFF71CFE08B172B6FEE70348FFF79EFD98
:1016A00008B010BD00440140C401002010B588B04E
:1016B0001C216846FEF789FE144813490024C0E93E
:1016C00000144FF6FF71C0E9024104618461FFF725
:1016D0005FFB08B172B6FEE70C48FFF75DFE08B18C
:1016E00072B6FEE76020CDE900040294002269464C
:1016F00006480494FFF7EAFD08B172B6FEE7034816
:10170000FFF76CFD08B010BD004801400C0200203E
:1017100010B58CB024216846FEF757FE0024164809
:10172000099414490A94C0E900144FF6FF71C0E906
:1017300002410461446184610120CDE90004CDE9E6
:1017400002040494CDE90540079469460A480894C8
:10175000FFF7F6FB08B172B6FEE7099409A906483F
:101760000A94FFF7D7FA002801D072B6FEE70CB052
:1017700010BD0000000001401400002010B58CB026
:1017800024216846FEF721FE0024144809944FF0F6
:1017900080410A94C0E90014611EC0E9024104615D
:1017A00084610120CDE90004CDE902040494CDE96F
:1017B00005400794694609480894FFF7C1FB08B142
:1017C00072B6FEE7099409A904480A94FFF7A2FA41
:1017D000002801D072B6FEE70CB010BD5C000020FE
:1017E00010B58EB000240794089409940A940B94C1
:1017F0001C2168460C94FEF7E8FD2A482849C0E9F8
:1018000000144FF6FF71C0E9024104618461FFF7E3
:10181000BFFA08B172B6FEE74FF48050079007A9EF
:101820002048FFF71FFB08B172B6FEE71D48FFF71F
:10183000B3FD08B172B6FEE70B940BA919480C94DE
:10184000FFF768FA08B172B6FEE76020CDE9000440
:1018500002940022694613480494FFF737FD08B14B
:1018600072B6FEE7042269460E48FFF72FFD08B165
:1018700072B6FEE7082269460A48FFF727FD08B15D
:1018800072B6FEE70C2269460648FFF71FFD08B155
:1018900072B6FEE70348FFF7A1FC0EB010BD0000D2
:1018A00000040040A400002010B58CB0242168463C
:1018B000FEF78BFD00241548099413490A94C0E9EA
:1018C00000144FF6FF71C0E90241046184610120F8
:1018D000CDE90004CDE902040494CDE90540079464
:1018E00069460A480894FFF72BFB08B172B6FEE779
:1018F000099409A905480A94FFF70CFA002801D0B9
:1019000072B6FEE70CB010BD00080040EC000020ED
:1019100010B58CB024216846FEF757FD0024154809
:10192000099413490A94C0E90014611EC0E90241F8
:10193000046184610120CDE90004CDE9020404942E
:10194000CDE90540079469460A480894FFF7F8FA7C
:1019500008B172B6FEE7099409A906480A94FFF790
:10196000D9F9002801D072B6FEE70CB010BD000016
:10197000000C00403401002010B58CB00024079406
:10198000089409941C2168460A94FEF71EFD1D4820
:101990001B49C0E900144FF6FF71C0E90241046120
:1019A0008461FFF7F5F908B172B6FEE74FF4805095
:1019B000079007A91348FFF755FA08B172B6FEE77A
:1019C0001048FFF7E9FC08B172B6FEE76020CDE9E8
:1019D00000040294002269460A480494FFF776FC4A
:1019E00008B172B6FEE7042269460648FFF76EFCAE
:1019F00008B172B6FEE70348FFF7F0FB0CB010BD6C
:101A0000004001407C010020FEE7FEE77047704780
:101A100017490868401C0860B0F5FA7F25D11548C1
:101A2000B0F90E20B0F91030D31A5B004361028286
:101A30001830B0F90E20B0F91030D31A5B004361B2
:101A400002821830B0F90E20B0F91030D31A5B00C2
:101A5000436102821830B0F90E20B0F91030D31A69
:101A60005B004361028200200860FEF711BE0000A7
:101A7000000000202803002030B593B030216846D4
:101A8000FEF7A3FC14210CA8FEF79FFC1C480024C1
:101A9000016841F080510160006800F080501190B1
:101AA0001848016841F4404101600068022500F4D3
:101AB000404011900120039010200490009506955D
:101AC0000820CDE907406420CDE9090504200B90EA
:101AD0006846FEF755FF08B172B6FEE70F20CDE964
:101AE0000C054FF48050CDE90E4003210CA8109452
:101AF000FEF75AFE002801D072B6FEE713B030BDE3
:101B000040380240007000400248016841F4700112
:101B10000160704788ED00E0F0B502681D4B1E4C77
:101B20009F031E4D1E4E984207D0B84205D0A042DA
:101B300003D0A84201D0B04204D122F0700C4A6810
:101B400042EA0C02984210D0B8420ED0A0420CD00B
:101B5000A8420AD0B04208D0124CA04205D0124C84
:101B6000A04202D0114CA04203D122F44074CA68B2
:101B700022434C6922F08002224302608A68C262DA
:101B80000A688262984201D10969016301214161B9
:101B9000F0BD0000000001400004004000080040CB
:101BA000000C00400040014000440140004801405A
:101BB00010B501F01F030121046A99408C430462AF
:101BC000016A9A401143016210BD10B5846842EA6F
:101BD000032224F47F440A432243826010BD8268BA
:101BE00022F070020A4342F0070181607047000052
:101BF00030B5026A22F001020262026A4368846917
:101C000024F073050C682C4322F002058A682A43ED
:101C10000A4DA8420BD122F00805CA6823F440738C
:101C20002A434D6922F004021D438B692B43436014
:101C3000846149684163026230BD000000000140D8
:101C400030B5026A22F010020262026A43688469B7
:101C50000D6824F4E64444EA05248D6822F020024D
:101C600042EA05120B4DA8420ED1CD6822F0800247
:101C700042EA05124D6923F4406343EA85038D6906
:101C800022F0400243EA850343608461496881632E
:101C9000026230BD0000014030B5026A22F4807259
:101CA0000262036A4268C46923F4007324F0730576
:101CB0000C682C438D6843EA05230C4DA8420ED1D5
:101CC000CD6823F4006343EA05234D6922F44052B2
:101CD00042EA05128D6923F4806342EA05124260EC
:101CE000C4614968C163036230BD00000000014067
:101CF00030B5026A22F480520262046A4268C36903
:101D00000D6823F4E64343EA05238D6824F4005468
:101D100044EA0534064DA84204D14D6922F48042BC
:101D200042EA85124260C36149680164046230BDC1
:101D30000000014010B5036A046A24F00104046243
:101D4000846924F0F00444EA021423F00A020A43EE
:101D50008461026210BD10B5036A23F010030362B0
:101D60008369046A23F4704343EA023224F0A00337
:101D700043EA01118261016210BD000070B50446A2
:101D800000680169E26821F4405111430161216951
:101D9000A068E26908436169114308432168CA6881
:101DA00049F20C639A430243CA6020684169A26900
:101DB00021F440711143416131492068884202D0C9
:101DC0003049884202D1FEF799FD01E0FEF786FD19
:101DD000E2690023192164253226B2F5004F6268BA
:101DE00028D0A0FB0101930F9200FEF745FA0146AF
:101DF000B0FBF5F06FF01802504301EB800006EBEA
:101E00000010B0FBF5F000F0F002B1FBF5F002EBD2
:101E10000012B1FBF5F06FF01803584301EB80009E
:101E200006EB0010B0FBF5F000F00F002168104445
:101E3000886070BDA0FB010192185B41FEF71CFA9F
:101E40000146B0FBF5F00201B1FBF5F06FF01803AD
:101E5000584301EB800006EBC000B0FBF5F000F04A
:101E6000F80002EB4002B1FBF5F0584301EB8000B3
:101E700006EBC000B0FBF5F000F00700D6E700006D
:101E80000010014000140140FEE70907090E002878
:101E900004DB00F1E02080F80014704700F00F0030
:101EA00000F1E02080F8141D70473C210298FFF7F4
:101EB00039B92DE9F05F0C46DDE90E150646DDE97E
:101EC0000C094FEA114ADDF828B01746984689B246
:101ED000002D1EDD4FF00102FEF7CEFB484600222A
:101EE0005146FEF7C9FB0BF0FF00012808D002287D
:101EF00009D003280AD0042835D13D6430461EE0BD
:101F00007D63304623E0BD63304625E0FD63304607
:101F100027E028DA0022FEF7AFFB484601225146AF
:101F2000FEF7AAFBCBF3072001280DD0022810D022
:101F3000032813D0042816D1C8F8405020460C219D
:101F4000BDE8F05FFFF756BAC8F8345020460021CC
:101F5000F6E7C8F8385020460421F1E7C8F83C50AD
:101F600020460821ECE7BDE8F09F000086B0FEF7B0
:101F700097FBFFF781FDFFF7FFFAFFF7C9FBFFF7BC
:101F8000FDFBFFF72DFCFFF78FFCFFF7C1FCFFF710
:101F9000F3FCFFF759FBFFF789FB634861490C220B
:101FA00001604FF4E131416000218160C160C0E90E
:101FB00004128161C161FFF775FA08B172B6FEE7DC
:101FC0005B495A485C4D00F1D80308600846584AFE
:101FD000436058488860CD6001211174517457499D
:101FE0009161D16152490422514C0A8401156184E6
:101FF000534C4E4E2660E560C4E901300223237441
:1020000063744E4BA361E36183142384431463849C
:102010004C4D334637462B6003F59073C5E90130CC
:10202000494BEB6003232B7401236B74434BAB616F
:10203000EB6103142B84454EC3136B84376007F5A3
:10204000B477C6E901704248F060327401207074C0
:102050004048B061F06131843F497384A7F5FC705A
:10206000CDE902013D48D0E90412CDE900120FC8C4
:10207000FFF71BFF4FF08041A7F5D870CDE90201B3
:102080003748D0E90412CDE900120FC8FFF70DFF61
:102090003449A7F59070CDE902013348D0E9041224
:1020A000CDE900120FC8FFF700FF3049A7F1D800B3
:1020B000CDE902012E48D0E90412CDE900120FC883
:1020C000FFF7F3FE1A494FF47A771422103168466D
:1020D0000597FEF748F916480FC8FFF7EAFE1422E5
:1020E00004F1100168460597FEF73DF994E80F00EA
:1020F000FFF7DFFE142205F1100168460597FEF791
:1021000032F995E80F00FFF7D4FE142206F1100112
:1021100068460597FEF727F996E80F00FFF7C9FE16
:10212000FEE700000014014054020020A40000203B
:1021300098020020000400400040014000040240DA
:10214000BC020020E0020020004401400403002003
:102150000048014000000240000001402803002028
:10216000400300200008004058030020000C0040FD
:10217000700300204FF04070E1EE100A704700003D
:102180000000000000000102030406070809000027
:102190000000010203040000B82100080000002034
:1021A00014000000D4010008CC2100081400002015
:1021B000D4090000F0010008000000000100000048
:0C21C00010000000000000000024F400EB
:040000050800019955
:00000001FF
