:020000040800F2
:100000003009002035020008F71B00086D170008B2
:10001000F51B00082B040008CD200008000000009C
:10002000000000000000000000000000FB1B0008B2
:100030002D04000800000000F91B0008FD1B00084B
:100040004F0200084F0200084F0200084F0200084C
:100050004F0200084F0200084F0200084F0200083C
:100060004F0200084F0200084F0200084F0200082C
:100070004F0200084F0200084F0200084F0200081C
:100080004F0200084F0200084F0200080000000065
:100090000000000000000000000000004F02000807
:1000A0004F0200084F0200084F0200082D1D0008F3
:1000B000391D00084F020008451D00084F020008C6
:1000C0004F0200084F0200084F0200084F020008CC
:1000D0004F0200084F0200084F0200080000000015
:1000E0004F0200084F0200084F0200080000000005
:1000F0000000000000000000000000004F020008A7
:10010000000000004F020008511D00084F020008C7
:1001100000000000000000000000000000000000DF
:100120004F0200084F0200084F0200084F0200086B
:100130004F02000800000000000000000000000066
:100140000000000000000000000000004F02000856
:100150004F0200084F0200084F0200084F0200083B
:100160004F0200084F0200080000000000000000DD
:10017000000000000000000000000000000000007F
:10018000000000004F020008000000000000000016
:100190004F02000800F002F800F03CF80AA090E8D6
:1001A000000C82448344AAF10107DA4501D100F032
:1001B00031F8AFF2090EBAE80F0013F0010F18BFC3
:1001C000FB1A43F001031847B0200000D0200000C4
:1001D000103A24BF78C878C1FAD8520724BF30C873
:1001E00030C144BF04680C60704700000023002445
:1001F00000250026103A28BF78C1FBD8520728BF37
:1002000030C148BF0B6070471FB502F023F81FBD17
:1002100010B510BD00F0CFF81146FFF7F5FF01F063
:1002200067FF00F0EDF803B4FFF7F2FF03BC00F046
:10023000F5F800000948804709480047FEE7FEE757
:10024000FEE7FEE7FEE7FEE7FEE7FEE7FEE7FEE786
:1002500004480549054A064B704700001D1D00086B
:1002600095010008300300203009002030050020EF
:100270003005002053EA020C00F069802DE9F04BB4
:100280004FF00006002B1FBFB3FA83F503FA05F405
:1002900024FA05F65E4012BF1643B2FA82F502FA5E
:1002A00005F4C5F120051EBF22FA05FC44EA0C0442
:1002B000203556EA044C4FEA144418BF641C4FF032
:1002C00000084FF00009904271EB030C39D300296C
:1002D00019BFB1FA81F701FA07F6B0FA80F700FA10
:1002E00007F6C7F120071EBF20FA07FC46EA0C06F6
:1002F0002037B6FBF4FCA7EB0507103F07F01F0BF8
:10030000CBF120060CFA0BFB2CFA06F644BFB346E1
:100310000026202FA4BF5E464FF0000B5BEA060CC0
:1003200008BF4FF0010B19EB0B09ABFB027C48EB4C
:100330000608C01B06FB02CC0BFB03CC71EB0C01C7
:10034000C1E70B46024641464846BDE8F08B13B56F
:100350004FF000004FF00001AFF30080BDE81C40FB
:1003600070474FF0000200B5134694469646203978
:1003700022BFA0E80C50A0E80C50B1F12001BFF45E
:10038000F7AF090728BFA0E80C5048BF0CC05DF8C4
:1003900004EB890028BF40F8042B08BF704748BF12
:1003A00020F8022B11F0804F18BF00F8012B704786
:1003B000704770477047754600F02CF8AE46050050
:1003C0006946534620F00700854618B020B5FFF770
:1003D0003FFFBDE820404FF000064FF000074FF010
:1003E00000084FF0000B21F00701AC46ACE8C00953
:1003F000ACE8C009ACE8C009ACE8C0098D4670475C
:1004000010B50446AFF300802046BDE81040FFF76A
:100410000ABF000000487047D002002001491820A0
:10042000ABBEFEE7260002007047FEE77047000003
:100430002DE9F84FDFF8B8A10022012403254FF081
:100440000F090AF1040BAAF1040E00BF0B6804FAAD
:1004500002F63340B34273D10F7907F00307012F3F
:1004600001D0022F16D187684FEA420805FA08FC2E
:1004700027EA0C07D1F80CC00CFA08FC4CEA070C70
:10048000C0F808C04768B7430E79C6F30016964017
:100490003E4346600E79F643B6070DD0C768560056
:1004A00005FA06FC27EA0C07D1F808C00CFA06FC8E
:1004B0004CEA070CC0F80CC00E7906F00306022EB9
:1004C00010D1D60800EB8608D8F8206057074FEA0D
:1004D000D76C09FA0CF7BE430F6907FA0CF73743DC
:1004E000C8F8207006684FEA420C05FA0CF7BE43C4
:1004F0000F7907F0030707FA0CF7374307604E68D8
:1005000016F4403F6DD03B4E376847F48047376064
:10051000366822F0030706F480460096364E07EB55
:10052000060CDCF8086897073F0F09FA07F826EA77
:100530000806DFF8C880404503D14FF000081EE0F0
:100540004FE0DFF8BC80404502D14FF0010816E0D3
:10055000DFF8B080404502D14FF002080FE0DFF82D
:10056000A880404502D14FF0030808E0DFF89C80E6
:10057000404502D14FF0040801E04FF0070808FAA7
:1005800007F848EA0608CCF80888DAF80060574609
:10059000D1F804C09E435FEACC2C00D51E433E60D8
:1005A000DBF800605F46D1F804C09E435FEA8C2C04
:1005B00000D51E433E60DEF800607746D1F804C0E7
:1005C0009E435FEA8C3C00D51E433E60084F083FC7
:1005D0003E68D1F804C09E435FEACC3C00D51E4380
:1005E0003E60521C102AFFF431AFBDE8F88F0000C6
:1005F000083C014044380240003001400000024005
:100600000004024000080240000C024000100240BA
:100610000AB1816170470904FBE700000148806866
:10062000704700003C0000200248816802781144B5
:10063000816070473C0000200B4810B5016841F410
:1006400000710160016841F480610160016841F45A
:1006500080710160032000F06FF80F2000F006F8B1
:1006600000F024F8002010BD003C024070B50D4D94
:1006700004464FF47A712878B1FBF0F00A49096812
:10068000B1FBF0F000F00CFB48B9102C07D20022AF
:100690002146501E00F030F800206C6070BD012033
:1006A00070BD00003C000020480000200A4808B54A
:1006B000016841F480410160006800F480400090CE
:1006C0000548001F016841F080510160006800F09A
:1006D0008050009008BD000044380240002809DB2B
:1006E00000F01F02012191404009800000F1E0204C
:1006F000C0F8001170470000F0B40E4B1B680C46A8
:10070000C3F30223C3F10705042D00D90425191DE5
:10071000072901D2002300E0DB1E012606FA05F1BD
:10072000491E214099409E40761E16403143F0BC40
:1007300001F0CDBC0CED00E0064900F007020868AE
:100740004FF6FF03184040EA0220034A10430860B6
:10075000704700000CED00E00000FA052DE9F047BD
:100760000E46050065D0DFF81481D8F80000F7B216
:1007700000F00700B04207D288F80070D8F80000F7
:1007800000F00700B04254D128683D4C810712D5D3
:10079000400703D5206840F4E05020602878000727
:1007A00003D5206840F4604020602068A96820F0EC
:1007B000F000084320602878C0072DD030496868D1
:1007C0000839012812D0022813D0032811D0096853
:1007D000890700292DDA216821F0030101432160F6
:1007E000FFF71CFF814641F2883A0EE00968890351
:1007F000EFE709688901ECE7FFF710FFA0EB0901BB
:10080000514502D90320BDE8F0872068696800F0EF
:100810000C00B0EB810FEFD1D8F80010404601F08A
:100820000701B14207D90770006800F00700B04225
:1008300001D00120E7E72878400705D52068E9685E
:1008400020F4E050084320602878000706D520688F
:10085000296920F4604040EAC100206000F038F8C7
:100860002168084AC1F30311515CC8400649086079
:1008700006480068FFF7FAFE0020C4E7003C02408B
:10088000083802405E220008480000204000002096
:100890000448054900680968044AC1F38221515C93
:1008A000C840704748000020083802406E22000807
:1008B0000448054900680968044AC1F34231515CA3
:1008C000C840704748000020083802406E220008E7
:1008D000154810B5006810F00C02144813D01449E4
:1008E000042A0FD0082A0ED10F4C241F2268236837
:1008F00002F03F025B0207D52068C0F38810A0FB1E
:10090000010106E0084610BD2168C1F38811A1FB72
:1009100000010023FFF7AEFC2168C1F30141491C2F
:100920004900B0FBF1F010BD083802400024F4008B
:1009300040787D012DE9F84F04006ED02078DFF873
:100940004C93C007A9F104054AD009F104000168DD
:10095000C1F38101012908D00068C0F38100022899
:100960000AD1D9F80000400206D52868800337D59F
:1009700060680028E1D033E06068B0F5803F10D0B7
:10098000B0F5A02F286810D020F4803028602868A7
:1009900020F4802028606068A8B1FFF73FFE06467B
:1009A0000DE0286840F48030F4E740F480202860AF
:1009B000F7E700BFFFF732FE801B642873D8286872
:1009C0008003F7D50CE0FFF729FE064605E000BFDF
:1009D000FFF724FE801B6428F0D828688003F7D432
:1009E0002078DFF8AC8280074FF0000A3ED5A74898
:1009F000001D016811F00C0F08D00068C0F38100E1
:100A000002280BD1D9F80000400207D428688007DB
:100A100016D5E068012800D112E033E1E068B8B1F2
:100A20000120C8F80000FFF7F9FD064605E000BF09
:100A3000FFF7F4FD801B0228C0D828688007F7D58F
:100A40002868216920F0F80040EAC10028600DE024
:100A5000C8F800A0FFF7E2FD064604E0FFF7DEFD60
:100A6000801B02281FD828688007F7D42078000749
:100A700022D5864F87486169703771B101210160C5
:100A8000FFF7CCFD064604E0FFF7C8FD801B0228F7
:100A900009D838688007F7D50EE0C0F800A0FFF746
:100AA000BDFD064605E082E0FFF7B8FD801B022889
:100AB0007DD838688007F7D42078400768D5DFF8FC
:100AC000CCB100270BF13C0BDBF80000C0000BD4CD
:100AD000DBF8001041F08051CBF80010DBF800008B
:100AE000012700F0805000906B4E3068C00510D494
:100AF000306840F480703060FFF790FD009005E0B2
:100B0000FFF78CFD0099401A022850D83068C005C4
:100B1000F6D55E4EA0686C3601280FD005283068E7
:100B200010D020F001003060306820F00400306008
:100B3000A068B8B1FFF772FD00900FE0306840F098
:100B40000100F4E740F004003060F7E7FFF766FDCE
:100B50000099411A41F28830814266D83068800796
:100B6000F4D50EE0FFF75AFD009007E0FFF756FDC1
:100B70000099411A41F28830814256D83068800786
:100B8000F4D42FB1DBF8001021F08051CBF8001025
:100B9000A069C8B33D49091D0968C1F38101022953
:100BA0004AD00228504607D0C8F8600000E03CE078
:100BB000FFF734FD04463BE04746C8F86000FFF706
:100BC0002DFD064605E000BFFFF728FD801B02282B
:100BD0002BD828688001F7D4D4E907010843A16A1B
:100BE0002E4A490802EB0141626A41EA8211084338
:100BF00094F82C1040EA0161C9F800100120386611
:100C0000FFF70CFD044606E03EE000BFFFF706FDDF
:100C1000001B022809D828688001F7D534E000BFFE
:100C2000FFF7FCFC001B022802D90320BDE8F88F67
:100C300028688001F4D427E00128F7D0D9F8000013
:100C4000E26900F4800191421CD1226A00F03F0168
:100C5000914217D147F6C071626A0140B1EB821F21
:100C600010D1A26A4FF0FF3300F4403103EB52027F
:100C7000B1EB024F06D194F82C1000F07060B0EB8D
:100C8000016F01D00120D1E70020CFE704380240F6
:100C900000004742800E4742007000400000FFFF06
:100CA00010B5401EB0F1807F01D3012010BD4FF080
:100CB000E02460610F21601701F009FA0020A061B3
:100CC00007202061002010BD7047704770B590F874
:100CD0003C20012A2CD0012480F83C40022280F8DC
:100CE0003D2003685A689D6822F070060A68324306
:100CF0005A60104B02689A420ED0B2F1804F0BD06E
:100D00000D4B9A4208D00D4B9A4205D00C4B9A429B
:100D100002D00C4B9A4204D1496825F08003194354
:100D2000916080F83D40002180F83C10084670BD7D
:100D3000022070BD00000140000400400008004097
:100D4000000C00400040014010B5040003D094F8AE
:100D50003D0010B107E0012010BD002084F83C00E8
:100D6000204600F01FF8022084F83D00211D206875
:100D700000F0F4FF012084F8460084F83E0084F877
:100D80003F0084F8400084F8410084F8420084F871
:100D9000430084F8440084F8450084F83D000020B6
:100DA00010BD000008B5124A01681248914207D1EF
:100DB000016841F480310160006800F4803009E08E
:100DC0000D4A914208D1016841F400310160006888
:100DD00000F40030009008BD084A9142FBD1016840
:100DE00041F480210160006800F48020F2E70000F7
:100DF00000400140443802400044014000480140A6
:100E000070B5044690F83C000025012817D0012653
:100E100084F83C60022084F83D002068826822F05B
:100E2000770222F47F4282600868502838D00DDCB7
:100E300020284FD005DC90B3102811D14AE00220C1
:100E400070BD302846D040280AD13BE060282FD022
:100E500070280DD0B0F5805F03D0B0F5005F12D0E0
:100E6000012584F83D60002084F83C00284670BDD0
:100E7000CB68D1E90121206800F0C9FF20688168B2
:100E800041F0770109E0CB68D1E90121206800F049
:100E9000BEFF2068816841F480418160E1E719E08C
:100EA000CA684968206801F067F85021206806E0A8
:100EB000CA684968206801F070F86021206800F075
:100EC000B0FFCEE7CA684968206801F055F84021B4
:100ED0002068F4E7226801461046F0E72DE9F0416A
:100EE0000D46040003D094F83D0018B108E001203D
:100EF000BDE8F081002084F83C00204600F040F876
:100F0000022084F83D002068816844F20702914382
:100F10008160211D206800F021FF2268906891699E
:100F2000166A2B68AF69034340F20330814341EAFC
:100F30000721A868EF6908434FF6FC418843E96838
:100F400040EA0720014328692F6A000140EA073080
:100F5000084369686D6926F0AA0646EA0515294323
:100F600093602268906154F8460B0162012004F8F6
:100F70001F09E0752076E0762077A0750020B7E79E
:100F8000F0B587B0044614216846FFF7EAF95849DE
:100F900023680024574802250126574A8B4223D153
:100FA000544914310B6843F001030B60096801F0E8
:100FB00001010591016841F0010101600068694685
:100FC00000F0010005904FF440700090CDE901540D
:100FD000CDE903461046FFF72BFA002211461B20ED
:100FE000FFF78AFB1B205BE04249444F1031B3F10D
:100FF000804F23D0424EB34256D10A6842F00402D9
:101000000A60096801F004010591016841F00201DC
:1010100001600068694600F002000590C020009061
:10102000CDE901543846CDE90345FFF701FA002226
:1010300011461E20FFF760FB1E2031E00B6843F0D5
:1010400001030B60096801F001010591016841F09D
:1010500001010160016801F001010591016841F0A1
:10106000020101600068694600F00200059020203E
:101070000090CDE90154CDE903461046FFF7D8F9B9
:1010800008200090CDE90154CDE903466946384671
:10109000FFF7CEF9002211461C20FFF72DFB1C2084
:1010A000FFF71CFB07B0F0BD164EB342FAD10B6838
:1010B00043F008030B60096801F00801059101681D
:1010C00041F0010101600068694600F001000590EF
:1010D00003200090CDE901541046CDE90345FFF708
:1010E000A7F9002211463220FFF706FB3220D7E78E
:1010F000000001403038024000000240000402407D
:1011000000080040000C004070B590F83E600446B6
:1011100090F83F5090F8423090F84320022021B1DF
:10112000042914D0012E25D11EE0012E22D1012B3D
:1011300020D184F83E0084F842000122002120687A
:1011400000F058FE2068C16841F002012FE0012D37
:1011500010D1012A0ED184F83F0084F84300042105
:10116000206800F047FE1EE0012D03D1012B01D1C4
:10117000012A01D0012070BD84F83E0084F83F00B0
:1011800084F8420084F8430001220021206800F026
:1011900031FE01220421206800F02CFE2068C16885
:1011A00041F00201C1602068C16841F00401C160E2
:1011B0002068016841F001010160002070BD00005D
:1011C0001A4B02681A499A4208D1526A0A6112B24D
:1011D0000A80D31702EB937292100A810268B2F16F
:1011E000804F08D1526A4A6112B24A80D31702EB8B
:1011F000937292104A810F4B02689A4208D1526A48
:101200008A6112B28A80D31702EB937292108A819C
:101210000068094A904208D1406AC86100B2C8809B
:10122000C21700EB92708010C88170470000014027
:101230000000002000080040000C004070B504468B
:10124000006801694FF00005C943890715D4C168DA
:10125000C943890711D4E91E016101202077206864
:1012600080698007204602D0FFF7AAFF04E000F063
:1012700011F9204600F0B6F9257720680169C943C5
:10128000490717D4C168C943490713D46FF0040153
:101290000161022020772068806910F4407F204699
:1012A00002D0FFF78DFF04E000F0F4F8204600F0D4
:1012B00099F9257720680169C943090716D4C168DF
:1012C000C943090712D46FF0080101610420207797
:1012D0002068C0698007204602D0FFF771FF04E054
:1012E00000F0D8F8204600F07DF9257720680169E4
:1012F000C943C90617D4C168C943C90613D46FF0DE
:1013000010010161082020772068C06910F4407F37
:10131000204602D0FFF754FF04E000F0BBF820465F
:1013200000F060F9257720680169C943C90708D131
:10133000C168C943C90704D1891E0161204600F074
:10134000ABF920680169C943090609D4C168C943DA
:10135000090605D46FF0800101612046FFF7B4FC57
:1013600020680169C943490609D4C168C9434906CF
:1013700005D46FF040010161204600F08EF920682D
:101380000169C94389060BD4C168C943890607D4DA
:101390006FF0200101612046BDE87040FFF795BC69
:1013A00070BD0000F0B587B0044614216846FEF712
:1013B000D8FF314B2168002430480225304A0326EB
:1013C000304F994221D1016841F00101016001686B
:1013D00001F001010591016841F00201016000681E
:1013E000694600F002000590C0200090CDE901544C
:1013F0001046CDE90345FFF71BF80096CDE90154EF
:1014000069463846CDE9034511E01F4B994212D198
:10141000016841F0010101600068694600F00100C7
:1014200005900C200090CDE90154104621E0FEF714
:10143000FFFF07B0F0BD154A914209D1016841F0A4
:1014400002010160006800F00200059090150BE0B9
:101450000F4A9142EDD1016841F00201016000683C
:1014600000F00200059050150090CDE90154694646
:101470003846CDE90346DAE7000400403038024040
:1014800000000240000402400040014000440140CE
:1014900000480140704770B5044690F83C000026B3
:1014A0000D4601280FD0012084F83C006AB1042ABF
:1014B0001DD0082A2FD00C2A3FD00126002084F806
:1014C0003C00304670BD022070BD206800F0B2FCC8
:1014D0002068816941F0080181612068816921F0FB
:1014E00004018161206881692A69114311E0206843
:1014F00000F0C8FC2068816941F4006181612068C6
:10150000816921F480618161206881692A6941EAE9
:1015100002218161D2E7206800F0E0FC2068C16907
:1015200041F00801C1612068C16921F00401C16175
:101530002068C1692A69114311E0206800F0FAFCB3
:101540002068C16941F40061C1612068C16921F46A
:101550008061C1612068C1692A6941EA0221C161D3
:10156000ACE710B5040003D094F83D0010B107E0DB
:10157000012010BD002084F83C00204600F01EF839
:10158000022084F83D00211D206800F0E7FB0120C7
:1015900084F8460084F83E0084F83F0084F8400058
:1015A00084F8410084F8420084F8430084F8440041
:1015B00084F8450084F83D00002010BD08B500689F
:1015C0000649884208D10648016841F002010160DD
:1015D000006800F00200009008BD00000004004018
:1015E000403802407047000010B50446022249B15D
:1015F00004290ED0082913D094F84100012816D0F0
:10160000012010BD94F83E000128F9D184F83E2055
:101610000FE094F83F000128F2D184F83F2008E061
:1016200094F840000128EBD184F8402001E084F8D0
:1016300041200122206800F0DDFB12492068884229
:1016400003D1426C42F400424264206888420ED0CA
:10165000B0F1804F0BD00C49884208D00B4988422A
:1016600005D00B49884202D00A49884204D18168DA
:1016700001F00701062903D0016841F00101016072
:10168000002010BD000001400004004000080040A0
:10169000000C0040004001407047704770B50400E6
:1016A00004D094F83D00002510B106E0012070BD83
:1016B00084F83C50204600F023F8242084F83D00B4
:1016C0002068C16821F40051C160204600F078FC18
:1016D0002068016921F4904101612068416921F08D
:1016E0002A0141612068C16841F40051C16025644C
:1016F000202084F83D0084F83E00002070BD0000EA
:1017000010B586B0044614216846FEF72AFE144937
:101710002068884221D113480021026842F020024B
:101720000260006800F0200005900E48143802683E
:1017300042F001020260006800F0010005904FF4E1
:10174000C05000900220CDE9010103200390082041
:10175000049069460448FEF76BFE06B010BD000019
:10176000001401404438024000000240FEE700003F
:101770002DE9F04786B014216846FEF7F2FD2C48AB
:101780000024016841F004010160016801F00401D6
:101790000591016841F080010160016801F080015C
:1017A0000591016841F001010160016801F001014A
:1017B0000591016841F0020101600068DFF8748062
:1017C00000F002004FF400550590002229464046E3
:1017D000FEF71EFFDFF860904FF20446002231460C
:1017E0004846FEF715FFDFF854A04FF404470022E7
:1017F00039465046FEF70CFF00950125CDE901540E
:10180000694640460394FEF713FE0096CDE9015465
:10181000694648460394FEF70BFE0097CDE9015454
:10182000694650460394FEF703FE06B0BDE8F08714
:10183000303802400008024000040240000002402C
:1018400010B588B01C216846FEF78BFD1548144979
:10185000002401605121C0E9011440F2E731C0E9E0
:1018600003148461FFF770FA08B172B6FEE70D4801
:10187000FFF777FE08B172B6FEE76020CDE90004FD
:1018800002940022694607480494FFF704FE08B159
:1018900072B6FEE70348FFF785FD08B010BD0000F3
:1018A00000440140FC01002010B588B01C216846AE
:1018B000FEF757FD15481449002401605121C0E985
:1018C000011440F2E731C0E903148461FFF73CFAE8
:1018D00008B172B6FEE70D48FFF743FE08B172B6D5
:1018E000FEE76020CDE90004029400226946074823
:1018F0000494FFF7D0FD08B172B6FEE70348FFF786
:1019000051FD08B010BD0000004801404402002015
:1019100010B58CB024216846FEF723FD002417483B
:10192000099415490A94C0E900144FF6FF71C0E903
:1019300002410461446184610320009001AA0220F5
:10194000012182E81300CDE90440CDE9061469467F
:101950000A480894FFF7C2FA08B172B6FEE7099484
:1019600009A906480A94FFF7B1F9002801D072B618
:10197000FEE70CB010BD0000000001404C0000204C
:1019800010B58CB024216846FEF7EBFC0024154806
:1019900009944FF080410A94C0E90014611EC0E927
:1019A0000241046184610320009001AA0220012108
:1019B00082E81300CDE90440CDE9061469460948E0
:1019C0000894FFF78BFA08B172B6FEE7099409A9EB
:1019D00004480A94FFF77AF9002801D072B6FEE7AE
:1019E0000CB010BD9400002010B58AB000240794FC
:1019F0001C2168460894FEF7B4FC22482049016087
:101A00005121C0E9011440F2E731C0E903148461B7
:101A1000FFF7A7FD08B172B6FEE7079407A91948BA
:101A20000894FFF753F908B172B6FEE76020CDE9DC
:101A3000000402940022694612480494FFF72BFD2B
:101A400008B172B6FEE7042269460E48FFF723FD8F
:101A500008B172B6FEE7082269460A48FFF71BFD87
:101A600008B172B6FEE70C2269460648FFF713FD7F
:101A700008B172B6FEE70348FFF794FC0AB010BD48
:101A800000040040DC00002010B58CB02421684622
:101A9000FEF767FC00241648099414490A94C0E92B
:101AA00000144FF6FF71C0E9024104618461032014
:101AB000009001AA0220012182E81300CDE9044030
:101AC000CDE9061469460A480894FFF707FA08B1F9
:101AD00072B6FEE7099409A905480A94FFF7F6F8DB
:101AE000002801D072B6FEE70CB010BD000800401F
:101AF0002401002010B58CB024216846FEF731FC8B
:101B000000241648099414490A94C0E90014611E7F
:101B1000C0E90241046184610320009001AA02200F
:101B2000012182E81300CDE90440CDE9061469469D
:101B30000A480894FFF7D2F908B172B6FEE7099493
:101B400009A906480A94FFF7C1F8002801D072B627
:101B5000FEE70CB010BD0000000C00406C0100203E
:101B600010B58CB000240794089409941C21684691
:101B70000A94FEF7F6FB1E481C4901605121C0E99A
:101B8000011440F2E731C0E903148461FFF7DCF887
:101B900008B172B6FEE74FF48050079007A91448C9
:101BA000FFF72EF908B172B6FEE71148FFF7D9FC2E
:101BB00008B172B6FEE76020CDE90004029400226D
:101BC00069460B480494FFF766FC08B172B6FEE75D
:101BD000042269460648FFF75EFC08B172B6FEE7CC
:101BE0000348FFF7DFFB0CB010BD000000400140D0
:101BF000B4010020FEE7FEE770477047194881688E
:101C0000491C8160B1F5FA7F29D11749B0F900204C
:101C1000164BB1F900108A1A52001A60018014495B
:101C2000B0F90220134BB1F900108A1A52001A6061
:101C300041801149B0F90420104BB1F900108A1A03
:101C400052001A6081800E49B0F906200D4BB1F99F
:101C500000108A1A52001A60C18000218160FEF7CC
:101C6000E3BC00003000002008000020200000201D
:101C70000A000020240000200C0000202800002082
:101C80000E0000202C00002030B593B030216846B3
:101C9000FEF767FB14210CA8FEF763FB1D48002428
:101CA000016841F080510160006800F0805011909F
:101CB0001948016821F4404141F400410160006885
:101CC000022500F440401190012003901020049060
:101CD000009506950820CDE907405420CDE9090577
:101CE00004200B906846FEF725FE08B172B6FEE7A9
:101CF0000F20CDE90C054FF48050CDE90E400221B4
:101D00000CA81094FEF72AFD002801D072B6FEE759
:101D100013B030BD403802400070004002480168F6
:101D200041F470010160704788ED00E00148FFF761
:101D300085BA00004C0000200148FFF77FBA000080
:101D4000940000200148FFF779BA00002401002028
:101D50000148FFF773BA00006C010020F0B502687B
:101D60001D4B1E4C9F031E4D1E4E984207D0B8427D
:101D700005D0A04203D0A84201D0B04204D122F045
:101D8000700C4A6842EA0C02984210D0B8420ED059
:101D9000A0420CD0A8420AD0B04208D0124CA042B7
:101DA00005D0124CA04202D0114CA04203D122F423
:101DB0004074CA6822434C6922F0800222430260C8
:101DC0008A68C2620A688262984201D10969016325
:101DD00001214161F0BD000000000140000400400D
:101DE00000080040000C0040004001400044014059
:101DF0000048014010B501F01F030121046A994019
:101E00008C430462016A9A401143016210BD10B50F
:101E1000846842EA032224F47F440A432243826016
:101E200010BD826822F070020A4342F0070181600F
:101E30007047000030B5026A22F001020262026AB5
:101E40004368846924F073050C682C4322F0020572
:101E50008A682A430A4DA8420BD122F00805CA68B5
:101E600023F440732A434D6922F004021D438B6919
:101E70002B434360846149684163026230BD0000C6
:101E80000000014030B5026A22F010020262026ACC
:101E9000436884690D6824F4E64444EA05248D68A7
:101EA00022F0200242EA05120B4DA8420ED1CD6865
:101EB00022F0800242EA05124D6923F4406343EAAE
:101EC00085038D6922F0400243EA85034360846103
:101ED00049688163026230BD0000014030B5026A8A
:101EE00022F480720262036A4268C46923F40073B8
:101EF00024F073050C682C438D6843EA05230C4DD0
:101F0000A8420ED1CD6823F4006343EA05234D694E
:101F100022F4405242EA05128D6923F4806342EABA
:101F200005124260C4614968C163036230BD0000AC
:101F30000000014030B5026A22F480520262046A55
:101F40004268C3690D6823F4E64343EA05238D68BC
:101F500024F4005444EA0534064DA84204D14D69E6
:101F600022F4804242EA85124260C36149680164FA
:101F7000046230BD0000014010B5036A046A24F019
:101F800001040462846924F0F00444EA021423F09A
:101F90000A020A438461026210BD10B5036A23F08D
:101FA000100303628369046A23F4704343EA023234
:101FB00024F0A00343EA01118261016210BD000018
:101FC00070B5044600680169E26821F4405111438C
:101FD00001612169A068E26908436169114308430E
:101FE0002168CA6849F20C639A430243CA602068B8
:101FF0004169A26921F4407111434161314920686E
:10200000884202D03049884202D1FEF751FC01E0FB
:10201000FEF73EFCE2690023192164253226B2F561
:10202000004F626828D0A0FB0101930F9200FEF7D9
:1020300021F90146B0FBF5F06FF01802504301EBB7
:10204000800006EB0010B0FBF5F000F0F002B1FBF1
:10205000F5F002EB0012B1FBF5F06FF018035843F6
:1020600001EB800006EB0010B0FBF5F000F00F0074
:1020700021681044886070BDA0FB010192185B418B
:10208000FEF7F8F80146B0FBF5F00201B1FBF5F000
:102090006FF01803584301EB800006EBC000B0FB63
:1020A000F5F000F0F80002EB4002B1FBF5F0584308
:1020B00001EB800006EBC000B0FBF5F000F007007C
:1020C000D6E700000010014000140140FEE70907B8
:1020D000090E002804DB00F1E02080F800147047AE
:1020E00000F00F0000F1E02080F8141D70470000A0
:1020F000FEF7A2FAFFF7C8FDFFF73AFBFFF708FC6F
:10210000FFF73EFCFFF770FCFFF7BEFCFFF7F2FCA9
:1021100048484749002401604FF4E131C0E9011407
:102120000C21C460C0E904418461C461FFF7B6FAC0
:1021300008B172B6FEE7FFF713FDFFF781FBFFF76B
:10214000B3FB3D494FF47A700860091D0860091D12
:102150000860091D08603948446384633848046096
:102160003848046000213848FFF73EFA0421364819
:10217000FFF73AFA08213448FFF736FA0C213248C3
:10218000FFF732FA2B480021D838FFF72DFA2948FB
:102190000421D838FFF728FA264800219038FFF7A5
:1021A00023FA244800214838FFF71EFA274C012261
:1021B00004212046FEF72CFA0122960231462046E1
:1021C000FEF726FA012211032046FEF721FA01222A
:1021D00051032046FEF71CFA012291032046FEF728
:1021E00017FA0122D50329462046FEF711FA184CAA
:1021F000012231462046FEF70BFA012229462046ED
:10220000FEF706FA10483C219038FEF77DFF0E4895
:102210003C214838FEF778FF0B483C214830FEF758
:1022200073FF09483C219030FEF76EFFFEE7000087
:10223000001401408C0200203404004000400140A2
:102240003444014034480140DC00002000040240D6
:10225000000002404FF04070E1EE100A70470000AD
:102260000000000000000102030406070809000046
:102270000000010203040000982200080000002072
:102280004C000000D0010008E42200084C000020AF
:10229000E4080000EC01000800000000000000005D
:1022A000000000000000000000000000000000002E
:1022B000000000000000000000000000000000001E
:1022C000000000000000000000000000000000000E
:1022D00000000000010000001000000000000000ED
:0422E0000024F400E2
:040000050800019559
:00000001FF
